100104241Aareal Bank                                               10666Berlin                             Aareal Bank                26910AARBDE5W10009004795U000000000
100208901UniCredit Bank - HypoVereinsbank                          10896Berlin                             UniCredit Bank-HypoVereinbk22014HYVEDEMM48899039785U000000000
100208902UniCredit Bank - HypoVereinsbank                          14532Kleinmachnow                       UniCredit Bank-HypoVereinbk22014HYVEDEMM48899049352U000000000
100208902UniCredit Bank - HypoVereinsbank                          16515Oranienburg                        UniCredit Bank-HypoVereinbk22014HYVEDEMM48899049745U000000000
100208902UniCredit Bank - HypoVereinsbank                          14776Brandenburg an der Havel           UniCredit Bank-HypoVereinbk22014HYVEDEMM48899049746U000000000
100208902UniCredit Bank - HypoVereinsbank                          15711Königs Wusterhausen                UniCredit Bank-HypoVereinbk22014HYVEDEMM48899049747U000000000